:100000000C942A000C9434000C9434000C943400AA
:100010000C9434000C9434000C9434000C94340090
:100020000C9434000C9434000C9434000C94340080
:100030000C9434000C9434000C9434000C94340070
:100040000C9436000C9434000C9434000C9434005E
:100050000C94340011241FBECFE5D8E0DEBFCDBF25
:100060000E9445000C945C000C9400001F920F92BB
:100070000FB60F9211248F9385B15D998CB98F9132
:100080000F900FBE0F901F9018958FB780688FBF8D
:100090008FEF81BB1ABA84BB80E687B98FEE86B931
:1000A00010BE88E08AB982E08BB986E880BD10BCBA
:0C00B00081E089B97894FFCFF894FFCF6D
:00000001FF
