:100000000C942A000C9434000C9434000C943400AA
:100010000C9434000C9434000C9434000C94340090
:100020000C9434000C9434000C9434000C94340080
:100030000C9434000C9436000C9434000C9434006E
:100040000C9434000C9434000C9434000C94340060
:100050000C94340011241FBECFE5D8E0DEBFCDBF25
:100060000E944D000C9460000C9400001F920F92AF
:100070000FB60F9211248F938CB18C3240F081E037
:100080008BBB8F910F900FBE0F901F9018958131F1
:1000900010F482E0F5CF1BBAF4CF8FB780688FBF22
:1000A00011BA8FEF8ABB84BB80E98AB982E08BB931
:1000B00086E880BD10BC81E089B978941BBAFFCF77
:0400C000F894FFCFE2
:00000001FF
